:1000000099C10000B3C10000B1C10000AFC1000040
:10001000ADC10000ABC10000A9C10000A7C1000034
:10002000A5C10000A3C10000A1C100000C94960866
:100030000C943F099BC1000099C1000097C10000CA
:1000400095C1000093C1000091C100008FC1000064
:100050008DC100008BC1000089C1000087C1000074
:1000600085C1000083C1000081C100007FC1000084
:100070007DC100000D0A0D0A3E20000D0A504E41C0
:100080004D45533A20000D0A503853454E53453ADA
:1000900020000D0A5245465F563A20000D0A504F87
:1000A0005254204445463A2000412C20506F776539
:1000B000723A20002E2043757272656E743A2000E9
:1000C0004F4646004F4E000D0A504F525420000D2F
:1000D0000A496E70757420566F6C746167653A20BA
:1000E000000D0A554E5245434F474E495A4544204C
:1000F000434F4D4D414E44005345545652454600E2
:1001000043555252454E5400503853454E5345497D
:1001100000564F4C5441474500503853454E5345C7
:100120005600504445464F464600504445464F4EC3
:1001300000504F464600504F4E00454550524F4DDF
:1001400044554D500053544154555300204F46469A
:100150000D0A00204F4E0D0A000D0A4B374E56482F
:10016000204443205044552056312E300D0A000DB6
:100170000A504F525420382053454E534520000D0D
:100180000A504F52542044454641554C542000508B
:100190004F525420494E49543A0D0A0044495341A4
:1001A000424C454400454E41424C4544000D0A50E6
:1001B0004F525420001803440043002000500044D4
:1001C0000055002000560031002E00300000000CC9
:1001D000034B0037004E005600480000000403099E
:1001E0000409023E00020100C032090400000102BD
:1001F0000201000524001001042402060524060063
:1002000001070582030800FF09040100020A00003B
:1002100000070504021000050705830210000512FF
:1002200001100102000008EB03442001000102DC80
:10023000016E616E00696E660000407A10F35A002C
:10024000A0724E18090010A5D4E80000E8764817FF
:100250000000E40B54020000CA9A3B000000E1F5E4
:1002600005000080969800000040420F000000A0AA
:100270008601000000102700000000E803000000D5
:10028000006400000000000A0000000000010000FF
:100290000000002C76D888DC674F0823DFC1DFAE72
:1002A00059E1B1B796E5E3E453C63AE6519976963B
:1002B000E8E6C28426EB898C9B62ED407C6FFCEF04
:1002C000BC9C9F40F2BAA56FA5F490055A2AF75C32
:1002D000936B6CF9676DC11BFCE0E40D47FEF520E4
:1002E000E6B500D0ED902E030094357705008084AC
:1002F0001E080000204E0A000000C80C33333333C0
:100300000F986E12831141EF8D2114893BE655162B
:10031000CFFEE6DB18D1844B381BF77C1D901DA463
:10032000BBE424203284725E228100C9F124ECA156
:10033000E53D270011241FBECFEFD2E0DEBFCDBFC9
:1003400011E0A0E0B1E0E0E7F7E202C005900D9215
:10035000AA35B107D9F721E0AAE5B1E001C01D92A5
:10036000AF3AB207E1F792D00C94B61349CECF93CF
:10037000DF93FC012491EC012196222341F06FE5EB
:1003800071E0822F90E00E94F512CE01F2CFDF9152
:10039000CF910895E9E7F1E0119281E0E939F8079A
:1003A000D9F710925A0184E790E0E1CF0F931F93A1
:1003B000CF93DF9309E911E0C0E0D0E0F80161914B
:1003C0008F01CE010E94A4132196C830D105B1F748
:1003D000DF91CF911F910F91089580E091E00E94ED
:1003E0006E0B0C94CC0A6230A0F5883090F5282F63
:1003F00030E08430A0F475B1A9014C5F5F4F81E01B
:1004000090E0042E01C0880F0A94EAF7613019F4D5
:10041000782B75B918C08095872385B914C078B139
:100420004BE050E0421B530B81E090E0042E01C0F2
:10043000880F0A94EAF7613019F4782B78B903C071
:100440008095872388B9F901EF58FE4F608380E0DB
:10045000089581E00895289891E09EBD0DB407FEAF
:10046000FDCF9EB5E82FF0E0E55EFE4F80818EBDAA
:100470000DB407FEFDCF2EB51EBC0DB407FEFDCF9B
:100480008EB5289A237090E0922B0895CF93DF9336
:10049000CDB7DEB7A8970FB6F894DEBF0FBECDBFBD
:1004A00029E9E22E21E0F22E00E010E0DD24D394D1
:1004B000C8010E949713823018F4D7018C9302C0B0
:1004C000F701D0820F5F1F4FFFEFEF1AFF0A0830CE
:1004D000110571F788E090E00E949F136B017C0189
:1004E00020E030E040E850E40E947E0C87FD1BC015
:1004F0002DEC3CEC4CE850E4C701B6010E949C0D89
:1005000018168CF0A7019601C701B6010E940B0EC8
:10051000811109C0C0926D01D0926E01E0926F010D
:10052000F09270010CC086E696E6A6E8B0E48093EF
:100530006D0190936E01A0936F01B09370018CE0F8
:1005400090E00E949713823018F48093A10102C0BA
:100550001092A10120E030E040E85AE360916D0183
:1005600070916E0180916F01909170010E94A00DB9
:1005700060935B0170935C0180935D0190935E01D9
:10058000E9E7F1E0119221E0E939F207D9F784B700
:10059000877F84BF88E10FB6F89480936000109243
:1005A00060000FBE94E080E80FB6F894809361007D
:1005B000909361000FBEABD56FE571E080E091E0F4
:1005C0000E94BA0B789409DF84EF91E0A3ECB9E0C4
:1005D0001197F1F700C0000001970097B9F789E57E
:1005E00091E0C5DEFADE84B1876084B9289A299843
:1005F0008CB580618CBD8CB580648CBD8CB58360FE
:100600008CBD8DB58E7F8DBD8CB5837F8CBD8CB53B
:100610008F7D8CBD84B1806F84B987B1806F87B9BD
:100620008AB180638AB98FE891E0A1DE19E9E12EF1
:1006300011E0F12E00E010E083E2C82E81E0D82E18
:100640009FE5A92E91E0B92E802F47010F5F1F4F24
:10065000F70161917F01C7DE1F930F93DF92CF9265
:10066000BF92AF920E94E6120F900F900F900F90E2
:100670000F900F90D4018C91882319F083E591E0BD
:1006800002C08CE491E073DEA8DE08301105E1F6CB
:1006900081DEFE0131967F010DE311E01E01F1E1E3
:1006A0002F0E311C80E091E00E94840B6C0197FDBD
:1006B0002FC35C9A6FE571E00E94F5122AE0C21622
:1006C000D104E9F02CF488E0C816D10451F014C329
:1006D0009DE0C916D10499F0AFE7CA16D10409F01C
:1006E0000BC380915A01882319F0815080935A01DD
:1006F000E0915A01F0E0E758FE4F108209C365E42B
:1007000071E089E791E00E94A012892B09F0FEC0F8
:100710008091A1018130C1F587E09DDEBC0180E0C0
:1007200090E00E94EA0C20915B0130915C014091C5
:100730005D0150915E010E94A00D2AE939E941E274
:1007400051E40E94A00DD82EC92E6BA37CA38DA3CB
:100750009EA38FEC90E06FA378A709DECF92DF9283
:1007600078A57F936FA16F9387E291E09F938F931A
:100770008FE591E09F938F930E94E6120FB6F89455
:10078000DEBF0FBECDBF04C01BA21CA21DA21EA2B5
:1007900021E731E03AA329A3CC24C394D12CA0E4CF
:1007A000AA2EB12CBFE58B2EB1E09B2E79A081E75C
:1007B00091E0781A87EC90E0DADD40E150E0B50195
:1007C000C1010E948713898980528F3528F0D10199
:1007D000E0E11D92EA95E9F73F922F92DF92CF92E6
:1007E000ADE2B1E0BF93AF939F928F920E94E61269
:1007F000A9A1BAA18D91BAA3A9A30FB6F894DEBF9F
:100800000FBECDBF813019F484EC90E002C080ECC3
:1008100090E0ADDDF8E0CF1205C08091A1018130FC
:1008200009F468C2872D17DEBC0180E090E00E94C9
:10083000EA0C20915B0130915C0140915D01509187
:100840005E010E94A00D2AE939E949EF50E40E94B7
:10085000820C2B013C012FE632E143E05BE30E9476
:100860007E0C87FF03C0412C512C32012DEC3CEC57
:100870004CEC5DE3C301B2010E94820C2B013C01F0
:1008800084EB90E074DD7F926F925F924F92A6E4CA
:10089000B1E0BF93AF939F928F920E94E6120FB682
:1008A000F894DEBF0FBECDBF8091A101813011F55C
:1008B00089EA90E05CDD242D352D462D572DBBA116
:1008C000ACA1FDA1EEA16B2F7A2F8F2F9E2F0E943E
:1008D000A00D9F938F937F936F93A7E3B1E0BF9396
:1008E000AF939F928F920E94E6120FB6F894DEBFEC
:1008F0000FBECDBF30E1A30EB11C8FEFC81AD80ACE
:1009000090ECA916B10409F051CFF4C16AE371E08B
:1009100089E791E00E94A012892B09F07EC08CE942
:1009200090E025DD812C912CEFE5AE2EE1E0BE2E8E
:10093000C4010E9497131F928F931F930F937FE51B
:10094000C72E71E0D72EBF92AF920E94E612AFEF92
:100950008A1A9A0A0F900F900F900F900F900F9095
:10096000B8E08B16910421F782E990E000DDB090A9
:100970006D01A0906E0190906F018090700188E0F1
:1009800090E00E949F138F929F92AF92BF929F938D
:100990008F937F936F9381E491E09F938F93DF9286
:1009A000CF920E94E61286E890E0E1DC8CE090E0D5
:1009B0000E9497131F928F9387E591E09F938F93E7
:1009C000DF92CF920E94E6128BE790E0D0DC0FB668
:1009D000F894DEBF0FBECDBF60E4A62EB12C40E17F
:1009E00050E0B501C7010E948713FF92EF92ABE47C
:1009F000B1E0BF93AF93DF92CF920E94E612F0E195
:100A0000AF0EB11C0F900F900F900F900F900F90A2
:100A100020ECA216B10419F76DC143E050E066E383
:100A200071E089E791E00E94A912892B91F59091DC
:100A30007C018FEC890F883028F461E0D4DC8DEAEA
:100A400091E07CC0913429F5C12CD12C5FE5A52E15
:100A500051E0B52E61E08C2DC6DC8DEA91E087DC9B
:100A6000DF92CF921F930F93BF92AF920E94E61234
:100A700085EA91E07CDC3FEFC31AD30A0F900F9018
:100A80000F900F900F900F9088E0C816D10411F7C7
:100A900031C144E050E061E371E089E791E00E94F8
:100AA000A912892B91F590917D018FEC890F8830E7
:100AB00028F460E098DC8DEA91E08AC0913429F551
:100AC000C12CD12C4FE5A42E41E0B42E60E08C2D3A
:100AD0008ADC8DEA91E04BDCDF92CF921F930F937B
:100AE000BF92AF920E94E6128CE991E040DC9FEF4A
:100AF000C91AD90A0F900F900F900F900F900F9076
:100B0000A8E0CA16D10411F7F5C046E050E06AE249
:100B100071E089E791E00E94A912892B09F040C099
:100B2000E0917F018FEC8E0F883060F4F0E0E8599F
:100B3000FE4F81E080833ADC8FE791E018DC85EAA4
:100B400091E0D7C0E13461F529E9822E21E0922EAF
:100B5000C12CD12C772473943FE5A32E31E0B32E22
:100B6000F40171924F018FE791E001DCDF92CF92A7
:100B70001F930F93BF92AF920E94E61285EA91E015
:100B8000F6DBFFEFCF1ADF0A0F900F900F900F9058
:100B90000F900F9028E0C216D10411F707DCAAC00D
:100BA00047E050E062E271E089E791E00E94A9121B
:100BB000892B09F03CC0E09180018FEC8E0F8830CA
:100BC00058F4F0E0E859FE4F1082F0DB8FE791E037
:100BD000CEDB8CE991E08DC0E13449F589E9882EBE
:100BE00081E0982EC12CD12C9FE5A92E91E0B92E41
:100BF000D4011D924D018FE791E0B9DBDF92CF92D6
:100C00001F930F93BF92AF920E94E6128CE991E07E
:100C1000AEDBBFEFCB1ADB0A0F900F900F900F9057
:100C20000F900F90E8E0CE16D10411F7B7CF48E04F
:100C300050E069E171E089E791E00E94A912892BF7
:100C400071F461E08CE090E00E94A41381E0809355
:100C5000A1018FE691E08BDB81E191E04AC048E0A1
:100C600050E068E071E089E791E00E94A912892BC9
:100C700069F460E08CE090E00E94A4131092A1015E
:100C80008FE691E074DB80E091E033C047E050E014
:100C900068EF70E089E791E00E94A912892B39F58D
:100CA00080915A01883018F144E050E060E871E02A
:100CB000C7010E94C2121D82C7010E94AB119F93FF
:100CC0008F9380915A011F928F93FF92EF928FE43E
:100CD00091E09F938F938FE591E09F938F930E9474
:100CE000E6120FB6F894DEBF0FBECDBF03C081EE93
:100CF00090E03DDB4FDB0CC080915A018F31D0F783
:100D0000E82FF0E0E758FE4FC0828F5F80935A01D2
:100D10005C9863DBC7CC0895089580E091E058C4E7
:100D200080E091E03BC5292F33272230310559F06F
:100D30002330310569F021303105F9F482E190E08A
:100D40002FE132E01EC08EE390E021EE31E019C0C9
:100D500099278130910541F08230910541F0892B2E
:100D600061F4EDEDF1E005C0EFECF1E002C0E5EB80
:100D7000F1E0849190E09F0104C080E090E020E0E9
:100D800030E0FA013183208308952091AD01309144
:100D9000AE012617370748F06115710539F4209127
:100DA000E8002E772093E80001C0B90120E061152A
:100DB0007105D1F13091A601332309F443C03530D8
:100DC00009F442C03091E80033FD40C03091E800A2
:100DD00032FF06C08091E80082FF29C080E00895BC
:100DE0003091E80030FFE3CF2091F20030E0FC01C9
:100DF000281B390BCF01820F931F6115710549F034
:100E00008830910530F481918093F100615071092F
:100E1000F1CF21E0089709F020E08091E8008E777B
:100E20008093E800CF01C3CF2111C4CFD3CF8091ED
:100E3000A601882339F0853039F08091E80083FFDE
:100E4000C9CF04C082E0089583E0089581E0089549
:100E50002091AD013091AE012617370748F061159A
:100E6000710539F42091E8002E772093E80001C045
:100E7000B90120E061157105D9F13091A601332344
:100E800009F444C0353009F443C03091E80033FD23
:100E900041C03091E80032FF06C08091E80082FF37
:100EA0002AC080E008953091E80030FFE3CF209120
:100EB000F20030E0FC01281B390BC9018E0F9F1F87
:100EC0006115710551F08830910538F48491809353
:100ED000F100319661507109F0CF21E0089709F0D7
:100EE00020E08091E8008E778093E800CF01C2CFA8
:100EF0002111C3CFD2CF8091A601882339F085304C
:100F000039F08091E80083FFC8CF04C082E00895E3
:100F100083E0089581E00895982F953058F59093D7
:100F2000E900981739F07091EC002091ED00509194
:100F3000F00003C0242F762F50E021FF19C030911C
:100F4000EB003E7F3093EB003091ED003D7F30931E
:100F5000ED003091EB0031603093EB007093EC00CA
:100F60002093ED005093F0002091EE0027FF07C082
:100F70009F5FD3CF8F708093E90081E0089580E078
:100F800008950F931F93CF93DF93062FEC0110E08A
:100F9000101769F19881992339F12C81E981FA813F
:100FA0006B81892F8F70853010F080E021C0223056
:100FB00010F056E001C052E028E030E040E02E178B
:100FC0003F0720F44F5F220F331FF9CF4295407F38
:100FD000452B991F9927991F6295660F660F607CB4
:100FE000692B9ADF882309F31F5F2596D1CF81E013
:100FF000DF91CF911F910F9108958091A70187FDF7
:1010000005C08091E80080FF0EC012C08091E8000A
:1010100082FD05C08091A6018111F8CF08958091CD
:10102000E8008B7708C08091A6018111EACF08956E
:101030008091E8008E778093E80008958091E40025
:101040009091E50045E62091EC0020FF21C0209121
:10105000E80020FD21C02091A601222389F025303F
:1010600089F02091EB0025FD0FC02091E400309124
:10107000E5002817390739F3415041F0C901E3CFA2
:1010800082E0089583E0089581E0089584E0089562
:101090002091E80022FFDFCF80E0089541D043D0C7
:1010A0008091D8008F778093D8008091D800806895
:1010B0008093D8008091D8008F7D8093D80084E001
:1010C00089BD86E089BD09B400FEFDCF1092A6015E
:1010D0001092A2011092A4011092A30142E060E0DC
:1010E00080E01ADF8091E1008E7F8093E1008091A3
:1010F000E20081608093E2008091E200886080934A
:10110000E2008091E0008E7F8093E0000895E3E6A6
:10111000F0E080818E7F808381E08093A501BECF47
:101120001092E20008951092E10008951F920F922C
:101130000FB60F9211242F933F934F935F936F93AA
:101140007F938F939F93AF93BF93EF93FF93809180
:10115000E10082FF0AC08091E20082FF06C0809118
:10116000E1008B7F8093E10016D28091E10080FF47
:1011700017C08091E20080FF13C08091E2008E7F53
:101180008093E2008091E20080618093E200809190
:10119000D80080628093D80019BC1092A601BCDDF3
:1011A0008091E10084FF2FC08091E20084FF2BC07A
:1011B00084E089BD86E089BD09B400FEFDCF809141
:1011C000D8008F7D8093D8008091E1008F7E80933E
:1011D000E1008091E2008F7E8093E2008091E20046
:1011E00081608093E2008091A201882311F084E065
:1011F00007C08091E30087FF02C083E001C081E067
:101200008093A60188DD8091E10083FF27C0809153
:10121000E20083FF23C08091E100877F8093E1009B
:1012200082E08093A6011092A2018091E1008E7F5E
:101230008093E1008091E2008E7F8093E2008091B4
:10124000E20080618093E20042E060E080E064DEE2
:101250008091F00088608093F0009DD1FF91EF9124
:10126000BF91AF919F918F917F916F915F914F91BE
:101270003F912F910F900FBE0F901F9018951F92C6
:101280000F920FB60F9211242F933F934F935F93BA
:101290006F937F938F939F93AF93BF93CF93EF936E
:1012A000FF93C091E900CF708091EC001092E900AB
:1012B0008091F000877F8093F00078941BD010928B
:1012C000E9008091F00088608093F000C093E9000D
:1012D000FF91EF91CF91BF91AF919F918F917F91AE
:1012E0006F915F914F913F912F910F900FBE0F9093
:1012F0001F9018951F93CF93DF93CDB7DEB7AA97B2
:101300000FB6F894DEBF0FBECDBFE7EAF1E08091E3
:10131000F100819321E0EF3AF207C9F701DD8091F6
:10132000E80083FF20C19091A7018091A80185303A
:1013300009F477C030F4813081F168F0833069F1CD
:1013400012C1883009F4E1C0893009F4F0C0863058
:1013500009F009C188C0903881F0923809F003C1C2
:101360008091AB018F708093E9008091EB0085FB49
:10137000882780F91092E90006C08091A30190911E
:10138000A401911182609091E800977F9093E8000A
:101390008093F1001092F100C3C0292F2D7F09F036
:1013A000E2C0992319F0923061F0DDC09091A9015B
:1013B000913009F0D8C0833009F090E09093A401F7
:1013C0002AC09091A901911126C02091AB012F70E4
:1013D00009F4C9C02093E9009091EB0090FF1BC075
:1013E000833021F48091EB00806213C08091EB0088
:1013F00080618093EB0081E090E0022E01C0880FB5
:101400000A94EAF78093EA001092EA008091EB00D8
:1014100088608093EB001092E9008091E800877F5C
:1014200082C09111A0C01091A9011F778091E300A3
:101430008078812B8093E3008091E800877F809300
:10144000E800DBDD8091E80080FFFCCF8091E300C5
:1014500080688093E300112311F083E001C082E0F3
:101460008093A60180C09058923008F07CC0809193
:10147000A9019091AA018C3D23E0920771F583E0C8
:101480008A838AE289834FB7F894DE01139620E0BD
:101490003EE051E2E32FF0E050935700E49120FF4B
:1014A00003C0E295EF703F5FEF708E2F90E0EA305F
:1014B00010F0C79601C0C0968D939D932F5F243185
:1014C00049F74FBF8091E800877F8093E8006AE288
:1014D00070E0CE01019659DC12C0AE014F5F5F4F44
:1014E0006091AB0120DC009709F43DC02091E80039
:1014F000277F2093E800BC0189819A81A9DC809133
:10150000E8008B778093E8002EC0903861F58091D9
:10151000E800877F8093E8008091A2018093F1002A
:101520008091E8008E778093E80067DD1CC0911100
:101530001AC09091A9019230B0F48091E800877FA1
:101540008093E8009093A20158DD8091A20181115F
:1015500004C08091E30087FF02C084E001C081E005
:101560008093A601DADB8091E80083FF0AC08091B6
:10157000E800877F8093E8008091EB008062809391
:10158000EB00AA960FB6F894DEBF0FBECDBFDF9179
:10159000CF911F9108950895CF938091A60188233C
:1015A000A9F08091E9008F709091EC0090FF02C04B
:1015B00090E801C090E0C92FC82B1092E9008091FB
:1015C000E80083FD97DECF70C093E900CF910895C6
:1015D000CF93DF93EC01FC0170968BE0DF011D924D
:1015E0008A95E9F782E08C83898783E08E8761E0C2
:1015F000CE010196C6DC882361F061E0CE0106963B
:10160000C0DC882331F061E0CE010B96DF91CF91F1
:10161000B8CC80E0DF91CF910895CF93C62F209171
:10162000A6012430F1F4FC01448955896689778943
:10163000452B462B472BA9F081818F708093E900C1
:101640008091E80085FF04C0C093F10080E00AC0EB
:101650008091E8008E778093E800F0DC8823A1F386
:1016600001C082E0CF910895FB01682F84859585A4
:10167000D4DF21E030E0811102C020E030E0882793
:101680009927821B930B08952091A601243021F500
:10169000FC014489558966897789452B462B472B60
:1016A000D9F081818F708093E9008091F2008823C6
:1016B00089F09091E8008091E8008E778093E800AF
:1016C00095FD08C0BBDC811108C08091E8008E77D1
:1016D0008093E80080E0089582E008952091A601BB
:1016E000243089F4FC014489558966897789452B22
:1016F000462B472B41F021812F702093E900209148
:10170000E80020FDC1CF08952091A601243019F0F2
:101710008FEF9FEF0895FC01448955896689778989
:10172000452B462B472BA1F386818F708093E900D0
:101730008091E80082FFECCF8091F200882321F0B5
:101740002091F10030E002C02FEF3FEF8091F200D6
:10175000811105C08091E8008B778093E800C90172
:101760000895FC0184859585CFDF97FF02C08EEF39
:101770009FEF0895FB012EE0DB011D922A95E9F70A
:1017800023E0238324E33BE03187208721EB3BE008
:10179000338722879587848708950895CF93DF93B1
:1017A000EC018091E80083FFA6C0888190E0209141
:1017B000AB013091AC012817390709F09CC080912A
:1017C000A801813261F020F4803209F43EC093C058
:1017D000823209F46CC0833209F47DC08CC08091E0
:1017E000A701813A09F087C08091E800877F809344
:1017F000E8008091E80080FFFCCF4C895D896E890C
:101800007F894093F100BB27A72F962F852F8093C8
:10181000F100CB01AA27BB278093F100472F552762
:10182000662777274093F100888D8093F100898D9A
:101830008093F1008A8D8093F1008091E8008E778B
:101840008093E800DF91CF91D8CB8091A7018132BE
:1018500009F051C08091E800877F8093E800809173
:10186000E80082FD05C08091A6018111F8CF43C038
:101870003091F1002091F1009091F1008091F10000
:101880003C8B2D8B9E8B8F8B8091F100888F80916C
:10189000F100898F8091F1008A8F8091E8008B7729
:1018A0008093E800AADBCE01DF91CF9176CF8091C3
:1018B000A701813201F58091E800877F8093E800DD
:1018C0009CDB8091A9019091AA01998B888BCE0114
:1018D000DF91CF9162CF8091A701813261F4809135
:1018E000E800877F8093E80088DB6091A901CE0142
:1018F000DF91CF9152CFDF91CF910895A8D008F416
:1019000081E008950CD0DEC0D6D040F0CDD030F0CC
:1019100021F45F3F19F0BFC0511108C1C2C0E3D02C
:1019200098F39923C9F35523B1F3951B550BBB27A6
:10193000AA2762177307840738F09F5F5F4F220F53
:10194000331F441FAA1FA9F333D00E2E3AF0E0E84C
:1019500030D091505040E695001CCAF729D0FE2F98
:1019600027D0660F771F881FBB1F2617370748072A
:10197000AB07B0E809F0BB0B802DBF01FF279358E0
:101980005F4F2AF09E3F510568F085C0CFC05F3F92
:10199000ECF3983EDCF3869577956795B795F795C8
:1019A0009F5FC9F7880F911D9695879597F90895C0
:1019B000E1E0660F771F881FBB1F6217730784075C
:1019C000BA0720F0621B730B840BBA0BEE1F88F76B
:1019D000E0950895E89409C097FB3EF490958095B2
:1019E000709561957F4F8F4F9F4F9923A9F0F92FE5
:1019F00096E9BB279395F695879577956795B79563
:101A0000F111F8CFFAF4BB0F11F460FF1BC06F5F48
:101A10007F4F8F4F9F4F16C0882311F096E911C05A
:101A2000772321F09EE8872F762F05C0662371F07B
:101A300096E8862F70E060E02AF09A95660F771F8F
:101A4000881FDAF7880F9695879597F90895990F6B
:101A50000008550FAA0BE0E8FEEF16161706E80778
:101A6000F907C0F012161306E407F50798F0621B99
:101A7000730B840B950B39F40A2661F0232B242B6E
:101A8000252B21F408950A2609F4A140A6958FEF8D
:101A9000811D811D089597F99F6780E870E060E0DF
:101AA00008959FEF80EC089500240A9416161706F7
:101AB00018060906089500240A941216130614063F
:101AC00005060895092E0394000C11F4882352F0A2
:101AD000BB0F40F4BF2B11F460FF04C06F5F7F4F5A
:101AE0008F4F9F4F089557FD9058440F551F59F041
:101AF0005F3F71F04795880F97FB991F61F09F3FFB
:101B000079F087950895121613061406551FF2CF23
:101B10004695F1DF08C0161617061806991FF1CF73
:101B200086957105610508940895E894BB2766279A
:101B30007727CB0197F908958ADF08F48FEF08958E
:101B40000AD0C0CFB1DF28F0B6DF18F0952309F036
:101B5000A2CFA7CFEBCFC7DFA8F39923D9F35523A3
:101B6000C9F3950F50E0551FAA27EE27FF27BB2783
:101B700000240894679520F4E20FF31FB41F0A1E97
:101B8000220F331F441FAA1F6695A9F7779530F4DB
:101B9000F30FB41F0A1E121E08F46395330F441F7F
:101BA000AA1F221F769599F7879520F4B40F0A1E75
:101BB000121E631F440FAA1F221F331F8695A9F709
:101BC000862F712D602D11249F5750408AF0E1F02F
:101BD00088234AF0EE0FFF1FBB1F661F771F881F69
:101BE00091505040A9F79E3F510570F054CF9ECFC1
:101BF0005F3FECF3983EDCF3869577956795B79554
:101C0000F795E7959F5FC1F7FE2B880F911D96957D
:101C1000879597F908951BDF880B990B0895A3E129
:101C2000B0E0E4E1FEE060C37C011B016A01FC015D
:101C300017821682838181FF49C3BE016F5F7F4F88
:101C40004B01F7019381F10193FD859193FF819100
:101C50001F01882309F436C3853239F493FD859139
:101C600093FF81911F01853231F4B70190E0BDD41B
:101C700056016501E6CF10E0512C20E02032A0F49F
:101C80008B3269F030F4803259F0833269F420618C
:101C90002CC08D3239F0803339F4216026C02260A7
:101CA000246023C0286021C027FD27C030ED380FF5
:101CB0003A3078F426FF06C0812F6AE00CD3182F43
:101CC000130F13C0852D6AE006D3582E530E2062E1
:101CD0000CC08E3221F426FDF5C2206406C08C367D
:101CE00011F4206802C0883641F4F10193FD85911A
:101CF00093FF81911F018111C1CF9BEB980F93300E
:101D000018F42061805E06C09BE9980F933008F0BC
:101D10009AC12F7E26FF16E02F73722E853621F48E
:101D2000F22FF0647F2E08C0863621F4622F60689F
:101D3000762E02C01111115077FE07C01C3348F4F3
:101D400044244394410E27E00BC0183030F4212F77
:101D500006C027E04CE3442E03C027E017E0412CE7
:101D6000560174E0A70EB11CF60160817181828179
:101D70009381042DA4010CD36C01098100FF02C0E2
:101D800003FF06C071FC07C072FC08C0612C08C0CC
:101D90003DE2632E05C02BE2622E02C090E2692E66
:101DA000802F8C7081F1662011F084E001C083E007
:101DB000851510F0512C0AC0581A73FC07C0B701E2
:101DC00080E290E012D45A94D1F7F4CF662021F04B
:101DD000B701862D90E009D403FD03C005E312E0AE
:101DE00002C001E312E0F72DF0717F2EF80184911B
:101DF000882309F45EC271108052B70190E0F5D3D8
:101E00000F5F1F4FF3CF77FE0FC04C0C04FF04C0D1
:101E10008A81813309F44A94141474F5F8E0F415B6
:101E200078F588E0482E2CC076FC2AC0812F90E0FF
:101E30008C159D059CF06CEFC6166FEFD60674F0FE
:101E4000772D7068772E0AC0E2E0F0E0EC0FFD1FFE
:101E5000E10FF11D8081803319F411501111F4CF7D
:101E600077FE0EC044244394410E812F90E0C816A3
:101E7000D9062CF41C1904C04424439401C010E07A
:101E800077FE07C01C141D043CF496012F5F3F4FE2
:101E900005C025E030E002C021E030E0662011F00E
:101EA0002F5F3F4F112331F0412F50E04F5F5F4FC5
:101EB000240F351F452D50E02417350714F4521A0E
:101EC00001C0512C872D897041F4552031F0B701A4
:101ED00080E290E08AD35A94F8CF662021F0B701CF
:101EE000862D90E082D373FC08C0552031F0B701F5
:101EF00080E390E07AD35A94F8CF77FE5DC09C2DB2
:101F00008D2DD7FE02C090E080E0692E782E40E053
:101F100050E0C601841991099D878C879601261986
:101F20003709280D391D812F90E0EE27FF27E81B88
:101F3000F90BFF87EE87FFEF6F167F0661F4B7019D
:101F40008EE290E02B8B3A8B488B598B4ED359897C
:101F500048893A892B89C614D70454F06C857D854D
:101F6000661577052CF4F901E40FF51F818101C096
:101F700080E371E0671A71084F5F5F4FEE85FF8560
:101F80006E167F0664F0B70190E02B8B3A8B488B7E
:101F9000598B2BD32B893A8948895989CCCF6C141A
:101FA0007D0439F49A81963318F4953311F404FFC3
:101FB00081E3B70190E045C08A81813309F00F7E4B
:101FC000B70190E012D3111105C074FE16C085E46C
:101FD00090E015C0B7018EE290E007D382E066245E
:101FE0006394680EF401E80FF11D8081B70190E061
:101FF000FCD2115051F3862DF2CF85E690E0B70167
:10200000F4D2D7FC05C0C114D10439F404FF05C0D3
:10201000D194C194D1088DE201C08BE2B70190E068
:10202000E4D280E36AE0C616D1042CF08F5FFAE0B8
:10203000CF1AD108F7CFB70190E0D7D2B701C601C8
:10204000C096D3D236C1833631F0833779F08335E9
:1020500009F054C020C0560172E0A70EB11CF60171
:102060008081898301E010E0640113C05601F2E031
:10207000AF0EB11CF601C080D18026FF03C0612FD6
:1020800070E002C06FEF7FEFC6012B8B8AD28C010C
:102090002B892F7714C05601F2E0AF0EB11CF60168
:1020A000C080D18026FF03C0612F70E002C06FEFB7
:1020B0007FEFC6012B8B5BD28C012B892068722E9F
:1020C00023FD18C0852D90E00817190798F4B70173
:1020D00080E290E08AD25A94F5CFF60177FC8591A0
:1020E00077FE81916F01B70190E07FD251105A9431
:1020F000015011090115110581F7DBC0843611F07B
:10210000893649F5560127FF09C0F4E0AF0EB11C2E
:10211000F60160817181828193810AC0F2E0AF0E85
:10212000B11CF60160817181882777FD8095982F19
:10213000022F0F7697FF08C0909580957095619556
:102140007F4F8F4F9F4F00682AE030E0A4017FD27D
:10215000C82EC8183DC0022F853721F40F7E2AE013
:1021600030E01DC0097F8F3691F018F4883559F0A2
:10217000A9C0803719F0883711F0A4C0006104FFAE
:1021800009C0046007C024FF08C0066006C028E03C
:1021900030E005C020E130E002C020E132E056012D
:1021A00007FF09C0F4E0AF0EB11CF6016081718138
:1021B0008281938108C0F2E0AF0EB11CF60160810C
:1021C000718180E090E0A40142D2C82EC8180F7738
:1021D00006FF0BC0202F2E7FC11650F404FF0AC04B
:1021E00002FD08C0202F2E7E05C0DC2C202F03C04E
:1021F000DC2C01C0D12E24FF0DC0FE01EC0DF11D21
:102200008081803311F4297E09C022FF06C0D39457
:10221000D39404C0822F867809F0D39423FD12C092
:1022200020FF06C01C2DD51418F4150D1D19D52C32
:10223000D51460F4B70180E290E02B8BD6D1D39413
:102240002B89F6CFD51410F45D1801C0512C24FF52
:1022500011C0B70180E390E02B8BC7D12B8922FFFF
:1022600016C021FF03C088E590E002C088E790E037
:10227000B7010CC0822F867851F021FD02C080E2A8
:1022800001C08BE227FD8DE2B70190E0AED1C1160F
:1022900030F4B70180E390E0A8D11150F8CFCA9490
:1022A000F401EC0DF11D8081B70190E09ED1C110C9
:1022B000F6CF552009F4DDCCB70180E290E095D14E
:1022C0005A94F7CFF7018681978102C08FEF9FEF75
:1022D0006396E2E125C0002480FD060E660F11F032
:1022E0008695D1F7802D08952F923F924F925F925D
:1022F0006F927F928F929F92AF92BF92CF92DF9216
:10230000EF92FF920F931F93CF93DF93CDB7DEB77A
:10231000CA1BDB0B0FB6F894DEBF0FBECDBF09940E
:102320002A88398848885F846E847D848C849B8465
:10233000AA84B984C884DF80EE80FD800C811B8173
:10234000AA81B981CE0FD11D0FB6F894DEBF0FBEA2
:10235000CDBFED010895FC0188279927E8942191CC
:102360002032E9F3293010F02E30C8F32B3239F047
:102370002D3231F4689403C01FD1820F911D219139
:1023800020532A30C8F31EF4909581959F4F0895ED
:10239000283008F027E03327DA01990F311D87FD37
:1023A000916000966105710539F432602E5F3D93AE
:1023B00030E32A95E1F708959F3F30F080387105AA
:1023C000610509F03C5F3C5F3D93913008F0806807
:1023D000911DDF93CF931F930F93FF92EF92192FCD
:1023E000987F9695E92F96959695E90FFF27ED56DC
:1023F000FD4F99273327EE24FF24A701E70105901D
:102400000894079428F4360FE71EF81E491F511D43
:10241000660F771F881F991F0694A1F705900794F0
:1024200028F4E70EF81E491F561FC11D770F881F9D
:10243000991F661F0694A1F70590079428F4F80EDB
:10244000491F561FC71FD11D880F991F661F771F71
:102450000694A1F70590079420F4490F561FC71F53
:10246000D81F990F661F771F881F0694A9F78491BC
:102470001095177041F0D695C79557954795F794E5
:10248000E7941A95C1F7E9E3F2E068941590159185
:1024900035916591959105907FE27395E118F10A68
:1024A000430B560BC90BD009C0F7E10CF11E431FBB
:1024B000561FC91FD01D7EF4703311F48A95E6CFE4
:1024C000E894015030F0080F0AF40027021708F4CE
:1024D000202F2395022F7A3328F079E37D932A95D4
:1024E000E9F710C07D932A9589F60694979567952C
:1024F000379517951794E118F10A430B560BC90B42
:10250000D00998F023957E9173957A3308F070E3A3
:102510007C932013B8F77E9170617D9330F08395A2
:1025200071E37D9370E32A95E1F71124EF90FF901A
:102530000F911F91CF91DF91992787FD9095089575
:10254000FB01DC018D91059080190110D9F3990BE5
:102550000895FB01DC014150504030F08D91059011
:10256000801919F40020B9F7881B990B0895FC0114
:102570000590615070400110D8F7809590958E0FAE
:102580009F1F0895FB01DC014150504048F001902D
:102590000D920020C9F701C01D9241505040E0F754
:1025A0000895FC016150704001900110D8F78095AA
:1025B00090958E0F9F1F0895BC01880F991F880F5B
:1025C000991F860F971F880F991F0895A0E0B0E00C
:1025D000EBEEF2E199CEAE01475F5F4F6F817885F8
:1025E0008D819E811CDBE2E0ABCE0F931F93CF93D6
:1025F000DF93182F092FEB018B8181FD03C08FEF33
:102600009FEF20C082FF10C04E815F812C813D81F1
:10261000421753077CF4E881F9819F012F5F3F4FF8
:1026200039832883108306C0E885F985812F0995B1
:10263000892B29F72E813F812F5F3F4F3F832E83C8
:10264000812F902FDF91CF911F910F910895FA0163
:10265000AA27283061F1203191F1E8946F936E7FC1
:102660006E5F7F4F8F4F9F4FAF4FB1E040D0B4E0D0
:102670003ED0670F781F891F9A1FA11D680F791F11
:102680008A1F911DA11D6A0F711D811D911DA11D24
:1026900022D009F468943F91062E000C3019000CEA
:1026A000000C3019305D3193CEF6CF010895462FDE
:1026B0004770405D4193B3E00FD0C9F7F6CF462F86
:1026C0004F70405D4A3318F0495D31FD40524193EF
:1026D00002D0A9F7EACFB4E0A695979587957795AC
:1026E0006795BA95C9F700976105710508959B0133
:1026F000AC010A2E06945795479537952795BA95BC
:10270000C9F7620F731F841F951FA01D0895DC0178
:10271000CB01FC01F999FECF06C0F2BDE1BDF89AEC
:10272000319600B40D9241505040B8F70895F99990
:10273000FECF92BD81BDF89A992780B50895A6E194
:10274000B0E044E050E0E5CF262FF999FECF92BDEE
:1027500081BDF89A019700B4021639F01FBA20BD66
:102760000FB6F894FA9AF99A0FBE0895F894FFCF2D
:102770000083100000010410000001820800000125
:1027800000000000000000000000009080B0A0D019
:10279000C0F0E050256900252E32665600256920DC
:1027A000222573223A2000252E3166570025692004
:1027B00000252E326620252E326600257320000D5E
:0A27C0000A25732025692025690011
:00000001FF
